:100000000C94FD000C94C1040C949A040C942501EA
:100010000C9425010C9425010C9425010C942501C8
:100020000C9425010C9425010C9425010C942501B8
:100030000C9425010C9425010C9425010C942501A8
:100040000C9450040C9425010C9425010C9425016A
:100050000C9425010C9425010C9425010C94250188
:100060000C9425010C942501072C7AA5BA6CC59037
:10007000DA3B9365FC8BBC53F810FD3C5692834DE4
:10008000BD879D3AB63DCBC9BF5BBE73DA0FC93F92
:1000900005A84CCDB2D44EB93836A9020C50B9914E
:1000A0008688083CA6AAAA2ABE000000803F00401D
:1000B0007A10F35A00A0724E18090010A5D4E80077
:1000C00000E87648170000E40B54020000CA9A3B8F
:1000D000000000E1F5050000809698000000404215
:1000E0000F000000A08601000000102700000000A3
:1000F000E803000000006400000000000A000000A7
:1001000000000100000000002C76D888DC674F0852
:1001100023DFC1DFAE59E1B1B796E5E3E453C63A58
:10012000E651997696E8E6C28426EB898C9B62EDCF
:10013000407C6FFCEFBC9C9F40F2BAA56FA5F49089
:10014000055A2AF75C936B6CF9676DC11BFCE0E400
:100150000D47FEF520E6B500D0ED902E0300943556
:1001600077050080841E080000204E0A000000C8A9
:100170000C333333330F986E12831141EF8D2114FA
:10018000893BE65516CFFEE6DB18D1844B381BF7CA
:100190007C1D901DA4BBE424203284725E22810069
:1001A000C9F124ECA1E53D27000000002400270050
:1001B0002A0000000000250028002B00040404048D
:1001C0000404040402020202020203030303030301
:1001D00001020408102040800102040810200102DE
:1001E00004081020000000080002010000030407BA
:1001F00000000000000000000B0811241FBECFEF1C
:10020000D8E0DEBFCDBF11E0A0E0B1E0E6EFFBE15A
:1002100002C005900D92A636B107D9F721E0A6E6F7
:10022000B1E001C01D92A63BB207E1F710E0CDEFAF
:10023000D0E004C02197FE010E94F30DCC3FD1070E
:10024000C9F70E94E8040C94F90D0C94000090E0AA
:10025000FC01EC51FE4F2491FC01E053FE4F349120
:10026000FC01E454FE4FE491EE23C9F0222339F05F
:10027000233001F1A8F4213019F1223029F1F0E006
:10028000EE0FFF1FEE54FE4FA591B4918FB7F89477
:10029000EC91611126C030953E233C938FBF0895A9
:1002A0002730A9F02830C9F0243049F78091800028
:1002B0008F7D03C0809180008F7780938000DFCF97
:1002C00084B58F7784BDDBCF84B58F7DFBCF8091E4
:1002D000B0008F778093B000D2CF8091B0008F7D37
:1002E000F9CF3E2BDACFCF93DF9390E0FC01E053C0
:1002F000FE4F249184549E4FFC0184918823C9F0C1
:1003000090E0880F991FFC01E855FE4FA591B4912C
:10031000FC01EE54FE4FC591D49161110DC09FB701
:10032000F8948C91209582238C93888128232883AC
:100330009FBFDF91CF910895623051F49FB7F89439
:100340003C91822F809583238C93E8812E2BEFCFD5
:100350008FB7F894EC912E2B2C938FBFEACF8E5051
:10036000806480937C0080917A00806480937A001E
:1003700080917A0086FDFCCF809178009091790081
:1003800008953FB7F89480919A0190919B01A091B4
:100390009C01B0919D0126B5A89B05C02F3F19F087
:1003A0000196A11DB11D3FBFBA2FA92F982F8827F5
:1003B000BC01CD01620F711D811D911D42E0660FD0
:1003C000771F881F991F4A95D1F708958F929F92A2
:1003D000AF92BF92CF92DF92EF92FF924B015C01FE
:1003E0000E94C1016B017C010E94C1016C197D0951
:1003F0008E099F09683E734081059105A8F321E0AD
:10040000821A9108A108B10888EEC80E83E0D81EB0
:10041000E11CF11C81149104A104B10429F7FF909F
:10042000EF90DF90CF90BF90AF909F908F90089506
:100430000E94C10160936A0170936B0180936C010B
:1004400090936D0108950895AF92BF92CF92DF927D
:10045000EF92FF920F931F93CF93DF936C017B0179
:100460008B01040F151FEB015E01AE18BF08C0170A
:10047000D10759F06991D601ED91FC910190F0817D
:10048000E02DC6010995892B79F7C501DF91CF9140
:100490001F910F91FF90EF90DF90CF90BF90AF90A2
:1004A0000895089590E080E0089580916A01909108
:1004B0006B01A0916C01B0916D01892B8A2B8B2B64
:1004C000F1F10E94C101609366017093670180930E
:1004D00068019093690140916601509167016091B4
:1004E00068017091690180916A0190916B01A091FE
:1004F0006C01B0916D0184179507A607B707F8F452
:100500008091660190916701A0916801B0916901A5
:1005100040916A0150916B0160916C0170916D0185
:10052000841B950BA60BB70B8093880190938901D0
:10053000A0938A01B0938B0181E080938C01089590
:100540008F929F92AF92BF920F931F93CF93DF939F
:10055000CDB7DEB7A1970FB6F894DEBF0FBECDBF03
:1005600019A2423008F44AE08E010F5D1F4F842E1D
:10057000912CB12CA12CA50194010E94D10DE62F44
:10058000B901CA01EA3044F5E05DD801EE938D016E
:10059000232B242B252B79F790E080E0109769F02E
:1005A000FD0101900020E9F73197AF014A1B5B0B79
:1005B000BD018EE991E00E942402A1960FB6F89445
:1005C000DEBF0FBECDBFDF91CF911F910F91BF90C6
:1005D000AF909F908F900895E95CD7CFFC01019078
:1005E0000020E9F73197AF01481B590BBC018EE998
:1005F00091E00C942402CF93DF93EC0160E08E81B4
:100600000E94270161E08E810E94270160E08E81B7
:100610000E9427018BE891E00197F1F7DF91CF91DC
:100620000895CF92DF92EF92FF920F931F93CF9393
:10063000DF936C017C0187E0E80EF11CD0E0C0E0A4
:10064000062F10E0B8010C2E02C0759567950A942C
:10065000E2F76170F70181917F010E9427012196E5
:10066000C430D10579F7C601DF91CF911F910F9169
:10067000FF90EF90DF90CF900C94FB02CF92DF922F
:10068000EF92FF920F931F93CF93DF93EC01F62E1F
:10069000642F8C810E9427018D818F3F19F060E0CB
:1006A0000E9427010F2D10E08F8584FF25C06E0169
:1006B00087E0C80ED11CF12CE12CB8010E2C02C031
:1006C000759567950A94E2F76170F60181916F0163
:1006D0000E942701FFEFEF1AFF0A88E0E816F104F5
:1006E00061F7CE01DF91CF911F910F91FF90EF90B5
:1006F000DF90CF900C94FB02B80184E0759567956C
:100700008A95E1F7CE010E9411036F2DCE01DF9192
:10071000CF911F910F91FF90EF90DF90CF900C94AD
:10072000110340E0682F8EE991E00C943E03CF93D3
:10073000DF93613029F09091AD0198609093AD0105
:100740006093B1011092B20190E49093B301809351
:10075000B401805C8093B50161E08091A2010E94A8
:1007600073018091A3018F3F19F061E00E94730132
:1007700061E08091A4010E947301CEE9D1E09E0165
:100780002E5931408091AD0184FD0BC084E090E092
:1007900021962817390744F461E08E810E94730185
:1007A000EECF88E090E0F4CF8BE39DE00197F1F786
:1007B00060E08091A2010E94270160E08091A40185
:1007C0000E9427018091A3018F3F19F060E00E94F1
:1007D00027018091AD0184FD39C063E08EE991E08D
:1007E0000E941103CBE4D6E4CE010197F1F763E058
:1007F0008EE991E00E9411032197F1F763E08EE901
:1008000091E00E94110383E592E00197F1F762E025
:100810008EE991E00E9411038091AD0180620E94F7
:10082000910384E08093AE018CE00E94910381E00B
:100830000E9491038BE39FE10197F1F782E080939F
:10084000AF0186E0DF91CF910C94910380620E940A
:1008500091038BE496E40197F1F78091AD018062FA
:100860000E94910383E592E00197F1F78091AD0139
:1008700080620E949103D0CF9091B101891710F04E
:100880008FEF890FE82FF0E0E256FE4F84898068F1
:100890000C94910341E00E943E0381E090E00895B2
:1008A0001F920F920FB60F9211242F933F938F93A5
:1008B0009F93AF93BF938091960190919701A091E0
:1008C0009801B09199013091950123E0230F2D37C4
:1008D00058F50196A11DB11D2093950180939601B5
:1008E00090939701A0939801B093990180919A01F8
:1008F00090919B01A0919C01B0919D010196A11D39
:10090000B11D80939A0190939B01A0939C01B09399
:100910009D01BF91AF919F918F913F912F910F902A
:100920000FBE0F901F90189526E8230F0296A11D69
:10093000B11DD2CF1F920F920FB60F9211242F9399
:100940003F934F935F936F937F938F939F93AF9357
:10095000BF93EF93FF93E0910201F091030109959A
:10096000FF91EF91BF91AF919F918F917F916F9187
:100970005F914F913F912F910F900FBE0F901F905D
:1009800018951F920F920FB60F9211242F933F9339
:100990004F935F936F937F938F939F93AF93BF9387
:1009A000EF93FF93E0910001F09101010995FF9110
:1009B000EF91BF91AF919F918F917F916F915F91D7
:1009C0004F913F912F910F900FBE0F901F90189550
:1009D000CF93DF93CDB7DEB72D970FB6F894DEBF78
:1009E0000FBECDBF789484B5826084BD84B581602C
:1009F00084BD85B5826085BD85B5816085BD8091EA
:100A00006E00816080936E00109281008091810061
:100A10008260809381008091810081608093810059
:100A2000809180008160809380008091B10084601B
:100A30008093B1008091B00081608093B00080917C
:100A40007A00846080937A0080917A00826080933B
:100A50007A0080917A00816080937A0080917A0098
:100A6000806880937A001092C10064E084E10E9463
:100A7000970362E082E00E94730162E083E00E94DB
:100A8000730160E08EE00E94730160E08FE00E94DD
:100A9000730161E089E00E94730161E08AE00E94D5
:100AA000730161E08DE00E94730161E080E10E94CA
:100AB000730161E081E10E94730161E082E10E94C3
:100AC000730188E192E0909301018093000180918D
:100AD0006900836080936900E89A85E592E09093CD
:100AE000030180930201809169008C60809369000A
:100AF000E99A81E00E943C0480E291E00E94EE02CB
:100B00006CED75E080E090E00E94E60181E00E94DB
:100B100091038BE39FE10197F1F7CE010796988748
:100B20008F830AE010E0812C912C5401C12CD12C30
:100B300076018EE00E94AF01092E000CAA0BBB0BC0
:100B4000C80ED91EEA1EFB1E8FE00E94AF01092EBF
:100B5000000CAA0BBB0B880E991EAA1EBB1E0150CF
:100B6000110939F7C701B6010E94B20B20E030E04D
:100B700040E251E40E943E0B2AE037ED43EA5CE399
:100B80000E94ED0C6B017C01C0929101D092920108
:100B9000E0929301F0929401C501B4010E94B20B5E
:100BA00020E030E040E251E40E943E0B26E636E6CB
:100BB00046EE5EE30E94ED0C4B015C0180928D01DC
:100BC00090928E01A0928F01B092900180918C0141
:100BD000882309F441C08091880190918901A091F6
:100BE0008A01B0918B01893C9105A105B105A0F165
:100BF0008091880190918901A0918A01B0918B0127
:100C000088329342A105B10538F580918201909117
:100C10008301009188011091890120918A0130910E
:100C20008B01409184015091850160918601709102
:100C30008701400F511F621F731F4093840150931F
:100C400085016093860170938701019690938301DB
:100C50008093820110928C01009182011091830196
:100C6000053011050CF46FC060918401709185010D
:100C700080918601909187010E94B00B2B013C016D
:100C8000B801110F880B990B0E94B20B9B01AC01AC
:100C9000C301B2010E943E0B20E030E042ED53E47C
:100CA0000E94C70A2B013C0120E030E0A9010E940C
:100CB000340B87FF03C0412C512C320120E030E07F
:100CC00044E353E4C301B2010E94ED0C20E030E4A0
:100CD0004CE156E40E943E0B2B013C0120E030E049
:100CE00040EA52E40E94E80C18160CF487C14092C6
:100CF0007E0150927F01609280017092810125E314
:100D00003AEF4EE85CE360917E0170917F01809143
:100D10008001909181010E94ED0C0E94390B60933B
:100D200004017093050180930601909307011092CE
:100D30008401109285011092860110928701109211
:100D4000830110928201A5019401C701B6010E949E
:100D5000ED0C4B015C01C0900401D0900501E090C6
:100D60000601F0900701A70196010E94ED0C2B01EE
:100D70003C01C701B6010E94B60A0E945A0D9B01B0
:100D8000AC01C501B4010E94ED0C6A877B878C879A
:100D90009D8726E636E646E65FE3C701B6010E9478
:100DA000340B382E331C3324331C39822AE939E9B9
:100DB00049E55FE3C701B6010E94340B282E221CCF
:100DC0002224221C2A822DEC3CEC4CE45FE3C70178
:100DD000B6010E94340B881F8827881F89878B8360
:100DE00020E030E040E45FE3C701B6010E94340B2D
:100DF000082F001F0027001F0C832CEE31E548E36D
:100E00005FE3C701B6010E94340B182F111F112791
:100E1000111F1D8323E333E343E35FE3C701B601FF
:100E20000E94340BF82EFF1CFF24FF1CFE82632D52
:100E300089E00E942701622D8AE00E9427016985CE
:100E40008DE00E942701602F80E10E942701612F21
:100E500081E10E9427016F2D82E10E942701FE019E
:100E60003196A4E1B1E0D12CC12C8191882329F0E5
:100E70008D919C911197C80ED91E12968F819885DD
:100E80008E179F0791F780E00E943C0482E391E077
:100E90000E94EE0280E00E943C0487E491E00E9400
:100EA000EE0260918D0170918E0180918F01909181
:100EB00090010EE611E020E044E00E942A08C801FB
:100EC0000E94EE028AE491E00E94EE02609191019C
:100ED00070919201809193019091940121E044E0FE
:100EE0000E942A08C8010E94EE0281E00E943C0490
:100EF00082E391E00E94EE0281E00E943C048EE4D5
:100F000091E00E94EE0260910401709105018091D0
:100F100006019091070123E044E00E942A08C801DD
:100F20000E94EE0282E591E00E94EE0220E045E0A0
:100F3000C501B4010E942A08C8010E94EE0282E0A5
:100F40000E943C0482E391E00E94EE0282E00E9453
:100F50003C0486E591E00E94EE0220E045E0C301FA
:100F6000B2010E942A08C8010E94EE0289E591E0C0
:100F70000E94EE0220E045E06A857B858C859D8598
:100F80000E942A08C8010E94EE0283E00E943C04ED
:100F900082E391E00E94EE0283E00E943C048DE532
:100FA00091E00E94EE020D2C000CEE08FF084AE0D2
:100FB000C701B601F7FE0EC041E06DE28EE991E097
:100FC0000E943E0366277727CB016C197D098E09A5
:100FD0009F094AE00E94A00281E691E00E94EE0291
:100FE0006CE271E080E090E00E94E60180E090E039
:100FF000892B09F496CD0E94000093CD80E090E00B
:10100000A0EAB2E480937E0190937F01A0938001D7
:10101000B093810174CEEEE9F1E0138212828CE08C
:1010200091E0918380838CE084838FEF85838BE0D4
:10103000868387E0878386E0808785E0818784E0F8
:1010400082871386148615861686178661E080E1EE
:101050000C949703EF920F931F93CF93DF93E801C4
:1010600034E047FD34E1042E000C550B57FF03C05C
:10107000519541955109E32E022F242FAE010E9474
:101080004808CE01DF91CF911F910F91EF90089505
:10109000A9E0B0E0EEE4F8E00C94850A6A01F22ED3
:1010A000B02E102FFBE3AF2EA01608F41BE31F5F3A
:1010B000012F27E0AE014F5F5F4F0E94A709BC01DF
:1010C0008981982F9970913009F43FC09BE2E1FC2F
:1010D00004C09E2D9170E0FC3AC05E2D5071E82F47
:1010E000E87083FF46C084E0911101C083E0EF2DDA
:1010F000E81B8F1508F0E0E0D6018E2F20E2552383
:1011000051F1992329F0D6019C93C60101966C01F7
:1011100096012D5F3F4FE2FE24C08EE4D6018C93F2
:1011200091E411969C93119712968C93D9018E2F6E
:1011300090E281111BC0E20FF32FF11D10828EEFA0
:101140009FEF2996ECE00C94A10A9DE2C6CF90E2B5
:10115000C4CF2D9381508111FCCFCE0ED11CE0E085
:10116000D0CF8EE6D6018C9391E6DBCF9D93815054
:10117000E0CF482F447082FF3DC084E0911101C050
:1011800083E08F1510F4EF2DE81BD6018E2F20E29F
:10119000552309F1992329F0D6019C93C6010196A4
:1011A0006C0196012D5F3F4FE2FE1BC089E4D60122
:1011B0008C938EE411968C93119786E412968C93FF
:1011C000D9018E2F90E2882309F4B5CF9D938150E9
:1011D000FACF2D9381508111FCCFCE0ED11CE0E0CF
:1011E000D9CF89E6D6018C938EE611968C93119710
:1011F00086E6E4CF9B0177FF02C030E020E0A1E06B
:10120000B0E0911102C0B0E0A0E0F9013196AE0F5C
:10121000BF1F8B2C912CBB2009F461C05401EFEF50
:10122000AE1ABE0AAA0DBB1DFA161B0619F014F061
:101230004F2D4A1B511188C0E3FC59C07601A42FE1
:10124000B0E2A1114FC0C40ED11C992309F45BC0B8
:1012500040E0D6011196F60190836D01552309F403
:1012600048C0012F060F9A81582F507184FF03C088
:10127000913309F4015010160CF047C0093008F002
:1012800008E0EEE2FE2E5B01A01AB1088501919400
:10129000819491082F3F320729F4D601FC92F60180
:1012A00031966F016217730794F1021713077CF5EB
:1012B000DB01A21BB30BAA24A394B12CAC0EBD1E60
:1012C000AA0DBB1D11968C9121503109D6011196A2
:1012D00028153905F4F0F60180836D01DBCFB12CC0
:1012E000A12CA0CFF701B1937F01A150AACF9111FA
:1012F000B0CFD601942F50E302C05D93915091116D
:10130000FCCFC40ED11C40E0ACCF01E0BACF80E3EB
:10131000DBCF6217730731F4963388F4953311F4F9
:10132000552369F0F6018083FD01842F90E281113D
:1013300008C0A40FB11D1C9290E080E002CF81E3B1
:10134000F1CF91938150F3CF911183CF8ACF283081
:1013500008F027E03327DA01990F311D87FD9160EE
:1013600000966105710539F432602E5F3D9330E3DC
:101370002A95E1F708959F3F30F0803871056105A7
:1013800009F03C5F3C5F3D93913008F08068911D0F
:10139000DF93CF931F930F93FF92EF92192F987FB4
:1013A0009695E92F96959695E90FFF27E85FFE4FF2
:1013B00099273327EE24FF24A701E701059008941D
:1013C000079428F4360FE71EF81E491F511D660FBB
:1013D000771F881F991F0694A1F70590079428F49A
:1013E000E70EF81E491F561FC11D770F881F991F52
:1013F000661F0694A1F70590079428F4F80E491F7C
:10140000561FC71FD11D880F991F661F771F06948F
:10141000A1F70590079420F4490F561FC71FD81F46
:10142000990F661F771F881F0694A9F7849110955E
:10143000177041F0D695C79557954795F794E7945F
:101440001A95C1F7EEEAF0E0689415901591359180
:101450006591959105907FE27395E118F10A430B30
:10146000560BC90BD009C0F7E10CF11E431F561FE4
:10147000C91FD01D7EF4703311F48A95E6CFE8942D
:10148000015030F0080F0AF40027021708F4202F4B
:101490002395022F7A3328F079E37D932A95E9F793
:1014A00010C07D932A9589F6069497956795379590
:1014B00017951794E118F10A430B560BC90BD00985
:1014C00098F023957E9173957A3308F070E37C93BE
:1014D0002013B8F77E9170617D9330F0839571E3AE
:1014E0007D9370E32A95E1F71124EF90FF900F911F
:1014F0001F91CF91DF91992787FD909508952F92A5
:101500003F924F925F926F927F928F929F92AF9293
:10151000BF92CF92DF92EF92FF920F931F93CF93E0
:10152000DF93CDB7DEB7CA1BDB0B0FB6F894DEBF77
:101530000FBECDBF09942A88398848885F846E849D
:101540007D848C849B84AA84B984C884DF80EE80E7
:10155000FD800C811B81AA81B981CE0FD11D0FB6F0
:10156000F894DEBF0FBECDBFED0108959F939F7726
:101570000E94ED0B0F90002042F49058A2EA2AED51
:101580003FE049E450E40E94DF0A0C949A0C505862
:10159000BB27AA270E94DF0A0C949A0C0E94610CB8
:1015A00038F00E94680C20F039F49F3F19F426F4BB
:1015B0000C94370C0EF4E095E7FB0C94310CE92FFA
:1015C0000E94BF0C58F3BA17620773078407950788
:1015D00020F079F4A6F50C94E10C0EF4E0950B2EB6
:1015E000BA2FA02D0B01B90190010C01CA01A00175
:1015F0001124FF27591B99F0593F50F4503E68F1D0
:101600001A16F040A22F232F342F4427585FF3CF10
:10161000469537952795A795F0405395C9F77EF4E1
:101620001F16BA0B620B730B840BBAF09150A1F02A
:10163000FF0FBB1F661F771F881FC2F70EC0BA0FB0
:10164000621F731F841F48F4879577956795B79538
:10165000F7959E3F08F0B0CF9395880F08F0992733
:10166000EE0F9795879508950E940D0C08F481E080
:1016700008950E94710CE3950C94AB0C0E94520BE0
:101680000C949A0C0E94680C58F00E94610C40F077
:1016900029F45F3F29F00C94310C51110C94E20CA9
:1016A0000C94370C0E94BF0C68F39923B1F35523B7
:1016B00091F3951B550BBB27AA2762177307840765
:1016C00038F09F5F5F4F220F331F441FAA1FA9F3FB
:1016D00035D00E2E3AF0E0E832D091505040E695E9
:1016E000001CCAF72BD0FE2F29D0660F771F881F4A
:1016F000BB1F261737074807AB07B0E809F0BB0B3D
:10170000802DBF01FF2793585F4F3AF09E3F510550
:1017100078F00C94310C0C94E20C5F3FE4F3983EAB
:10172000D4F3869577956795B795F7959F5FC9F739
:10173000880F911D9695879597F90895E1E0660FBA
:10174000771F881FBB1F621773078407BA0720F033
:10175000621B730B840BBA0BEE1F88F7E09508959C
:10176000E89409C097FB3EF490958095709561953B
:101770007F4F8F4F9F4F9923A9F0F92F96E9BB27F1
:101780009395F695879577956795B795F111F8CF6D
:10179000FAF4BB0F11F460FF1BC06F5F7F4F8F4FD8
:1017A0009F4F16C0882311F096E911C0772321F0CE
:1017B0009EE8872F762F05C0662371F096E8862F66
:1017C00070E060E02AF09A95660F771F881FDAF7BD
:1017D000880F9695879597F90895DF93CF931F9378
:1017E0000F938B01EC01E8E6F0E00E943A0C0E94B6
:1017F0009A0C9801AE018B01EC0160E070E080E88A
:101800009FE30E94C70A0E94680D9801AE010F91E4
:101810001F91CF91DF910C94000D990F0008550F87
:10182000AA0BE0E8FEEF16161706E807F907C0F066
:1018300012161306E407F50798F0621B730B840B6E
:10184000950B39F40A2661F0232B242B252B21F448
:1018500008950A2609F4A140A6958FEF811D811DE8
:10186000089597F99F6780E870E060E008959FEF22
:1018700080EC0895DF93CF931F930F93FF92EF9225
:10188000DF927B018C01689406C0DA2EEF010E9482
:10189000000DFE01E894A591259135914591559152
:1018A000A6F3EF010E94DF0AFE019701A801DA9476
:1018B00069F7DF90EF90FF900F911F91CF91DF912B
:1018C000089500240A9416161706180609060895A6
:1018D00000240A94121613061406050608950C94A3
:1018E000370C0E94C70CD8F3E894E0E0BB279F5761
:1018F000F0F02AED3FE049EC06C0EE0FBB0F661F8B
:10190000771F881F28F0B23A62077307840728F010
:10191000B25A620B730B840BE3959A9572F7803879
:1019200030F49A95BB0F661F771F881FD2F7904837
:101930000C94AA0D092E0394000C11F4882352F084
:10194000BB0F40F4BF2B11F460FF04C06F5F7F4FEB
:101950008F4F9F4F0895EF93E0FF07C0A2EA2AED53
:101960003FE049EC5FEB0E94DF0A0E949A0C0F9067
:10197000039401FC9058E0E9F0E00C94BD0D57FD94
:101980009058440F551F59F05F3F71F04795880FED
:1019900097FB991F61F09F3F79F087950895121684
:1019A00013061406551FF2CF4695F1DF08C0161630
:1019B00017061806991FF1CF8695710561050894E1
:1019C0000895E894BB2766277727CB0197F90895F8
:1019D0000E940D0C08F48FEF08950E94000D0C94E6
:1019E0009A0C0E94610C38F00E94680C20F095233C
:1019F00011F00C94310C0C94370C11240C94E20C63
:101A00000E94BF0C70F3959FC1F3950F50E0551FD6
:101A1000629FF001729FBB27F00DB11D639FAA2743
:101A2000F00DB11DAA1F649F6627B00DA11D661F92
:101A3000829F2227B00DA11D621F739FB00DA11DB3
:101A4000621F839FA00D611D221F749F3327A00D6D
:101A5000611D231F849F600D211D822F762F6A2F09
:101A600011249F5750409AF0F1F088234AF0EE0F6E
:101A7000FF1FBB1F661F771F881F91505040A9F79B
:101A80009E3F510580F00C94310C0C94E20C5F3FAA
:101A9000E4F3983ED4F3869577956795B795F795D7
:101AA000E7959F5FC1F7FE2B880F911D969587954F
:101AB00097F908959F930E94710C0F9007FCEE5FB9
:101AC0000C94AB0C19F416F40C94370C0C94A80D70
:101AD0000E94C70CB8F39923C9F3B6F39F57550B6F
:101AE00087FF0E94B60D0024A0E640EA90018058CE
:101AF0005695979528F4805C660F771F881F20F015
:101B000026173707480730F4621B730B840B202914
:101B100031294A2BA69517940794202531254A2769
:101B200058F7660F771F881F20F0261737074807DA
:101B300030F4620B730B840B200D311D411DA095F9
:101B400081F7B901842F9158880F9695879508954C
:101B50009F3F31F0915020F4879577956795B79521
:101B6000880F911D9695879597F90895915050404B
:101B7000660F771F881FD2F708959F938F937F93E7
:101B80006F93FF93EF939B01AC010E94ED0CEF91DB
:101B9000FF910E943A0C2F913F914F915F910C94CD
:101BA000ED0CA1E21A2EAA1BBB1BFD010DC0AA1F42
:101BB000BB1FEE1FFF1FA217B307E407F50720F0B6
:101BC000A21BB30BE40BF50B661F771F881F991F31
:101BD0001A9469F760957095809590959B01AC017A
:101BE000BD01CF010895EE0FFF1F0590F491E02D88
:061BF0000994F894FFCFF8
:101BF600230223023333733F000000004A04240209
:101C0600520251026400C800900120034006800C75
:101C1600202020415046432053595354454D2020FF
:101C260020002020202020202020202020202020CE
:101C360020202020202000563A0020493A00504615
:101C46003A0020533A00503A0020513A0051633A84
:061C56000020564152007F
:00000001FF
