:100000000C94E9000C945F040C9438040C941101D6
:100010000C9411010C9411010C9411010C94110118
:100020000C9411010C9411010C9411010C94110108
:100030000C9411010C9411010C9411010C941101F8
:100040000C94EE030C9411010C9411010C94110109
:100050000C9411010C9411010C9411010C941101D8
:100060000C9411010C94110105A84CCDB2D44EB9D9
:100070003836A9020C50B9918688083CA6AAAA2A4B
:10008000BE000000803F00407A10F35A00A0724E7C
:1000900018090010A5D4E80000E87648170000E42D
:1000A0000B54020000CA9A3B000000E1F505000075
:1000B00080969800000040420F000000A0860100DA
:1000C0000000102700000000E803000000006400AA
:1000D000000000000A000000000001000000000015
:1000E0002C76D888DC674F0823DFC1DFAE59E1B139
:1000F000B796E5E3E453C63AE651997696E8E6C248
:100100008426EB898C9B62ED407C6FFCEFBC9C9F4E
:1001100040F2BAA56FA5F490055A2AF75C936B6C70
:10012000F9676DC11BFCE0E40D47FEF520E6B50064
:10013000D0ED902E0300943577050080841E0800D2
:1001400000204E0A000000C80C333333330F986E82
:1001500012831141EF8D2114893BE65516CFFEE63F
:10016000DB18D1844B381BF77C1D901DA4BBE42405
:10017000203284725E228100C9F124ECA1E53D2782
:1001800000000000240027002A00000000002500D5
:1001900028002B00040404040404040402020202E4
:1001A000020203030303030301020408102040803A
:1001B00001020408102001020408102000000008B9
:1001C000000201000003040700000000000000001E
:1001D000A50711241FBECFEFD8E0DEBFCDBF11E0D1
:1001E000A0E0B1E0EAEDF9E102C005900D92A2377E
:1001F000B107D9F721E0A2E7B1E001C01D92AE3B03
:10020000B207E1F710E0C9EED0E004C02197FE018B
:100210000E94E50CC83ED107C9F70E9486040C94E1
:10022000EB0C0C94000090E0FC01E454FE4F249190
:10023000FC01E855FE4F3491FC01EC56FE4FE49171
:10024000EE23C9F0222339F0233001F1A8F4213044
:1002500019F1223029F1F0E0EE0FFF1FE657FE4FB3
:10026000A591B4918FB7F894EC91611126C03095A7
:100270003E233C938FBF08952730A9F02830C9F062
:10028000243049F7809180008F7D03C080918000E9
:100290008F7780938000DFCF84B58F7784BDDBCFED
:1002A00084B58F7DFBCF8091B0008F778093B000B5
:1002B000D2CF8091B0008F7DF9CF3E2BDACFCF9394
:1002C000DF9390E0FC01E855FE4F24918C569E4F41
:1002D000FC0184918823C9F090E0880F991FFC01EC
:1002E000E058FE4FA591B491FC01E657FE4FC59131
:1002F000D49161110DC09FB7F8948C912095822301
:100300008C938881282328839FBFDF91CF91089504
:10031000623051F49FB7F8943C91822F80958323EB
:100320008C93E8812E2BEFCF8FB7F894EC912E2B86
:100330002C938FBFEACF8E50806480937C00809195
:100340007A00806480937A0080917A0086FDFCCFE9
:10035000809178009091790008953FB7F89480914A
:10036000A2019091A301A091A401B091A50126B58D
:10037000A89B05C02F3F19F00196A11DB11D3FBFDD
:10038000BA2FA92F982F8827BC01CD01620F711DAC
:10039000811D911D42E0660F771F881F991F4A95A6
:1003A000D1F708958F929F92AF92BF92CF92DF9232
:1003B000EF92FF924B015C010E94AD016B017C0149
:1003C0000E94AD016C197D098E099F09683E73403A
:1003D00081059105A8F321E0821A9108A108B108CE
:1003E00088EEC80E83E0D81EE11CF11C8114910434
:1003F000A104B10429F7FF90EF90DF90CF90BF9058
:10040000AF909F908F9008950E94AD016093760108
:1004100070937701809378019093790108950895FE
:10042000AF92BF92CF92DF92EF92FF920F931F9302
:10043000CF93DF936C017B018B01040F151FEB0140
:100440005E01AE18BF08C017D10759F06991D601F7
:10045000ED91FC910190F081E02DC6010995892B69
:1004600079F7C501DF91CF911F910F91FF90EF9028
:10047000DF90CF90BF90AF900895089590E080E016
:1004800008958091760190917701A0917801B091C3
:100490007901892B8A2B8B2BF1F10E94AD0160939E
:1004A0007201709373018093740190937501409170
:1004B0007201509173016091740170917501809186
:1004C000760190917701A0917801B091790184171C
:1004D0009507A607B707F8F4809172019091730110
:1004E000A0917401B091750140917601509177010E
:1004F0006091780170917901841B950BA60BB70B65
:100500008093900190939101A0939201B0939301F5
:1005100081E0809394010895FC0101900020E9F7A7
:100520003197AF01481B590BBC0186EA91E00C944E
:100530001002CF93DF93EC0160E08E810E941301E3
:1005400061E08E810E94130160E08E810E941301A0
:100550008BE891E00197F1F7DF91CF910895CF9269
:10056000DF92EF92FF920F931F93CF93DF936C0173
:100570007C0187E0E80EF11CD0E0C0E0062F10E01F
:10058000B8010C2E02C0759567950A94E2F7617068
:10059000F70181917F010E9413012196C430D1059A
:1005A00079F7C601DF91CF911F910F91FF90EF90E6
:1005B000DF90CF900C949902CF92DF92EF92FF924E
:1005C0000F931F93CF93DF93EC01F62E642F8C8152
:1005D0000E9413018D818F3F19F060E00E9413018A
:1005E0000F2D10E08F8584FF25C06E0187E0C80EB7
:1005F000D11CF12CE12CB8010E2C02C07595679529
:100600000A94E2F76170F60181916F010E94130173
:10061000FFEFEF1AFF0A88E0E816F10461F7CE0158
:10062000DF91CF911F910F91FF90EF90DF90CF90CE
:100630000C949902B80184E0759567958A95E1F765
:10064000CE010E94AF026F2DCE01DF91CF911F919D
:100650000F91FF90EF90DF90CF900C94AF0240E0AD
:10066000682F86EA91E00C94DC02CF93DF9361302F
:1006700029F09091B50198609093B5016093B9010C
:100680001092BA0190E49093BB018093BC01805C0E
:100690008093BD0161E08091AA010E945F01809179
:1006A000AB018F3F19F061E00E945F0161E0809132
:1006B000AC010E945F01C6EAD1E09E01265A31409A
:1006C0008091B50184FD0BC084E090E0219628174D
:1006D000390744F461E08E810E945F01EECF88E02B
:1006E00090E0F4CF8BE39DE00197F1F760E080911B
:1006F000AA010E94130160E08091AC010E941301E5
:100700008091AB018F3F19F060E00E94130180914E
:10071000B50184FD39C063E086EA91E00E94AF0232
:10072000CBE4D6E4CE010197F1F763E086EA91E0ED
:100730000E94AF022197F1F763E086EA91E00E9400
:10074000AF0283E592E00197F1F762E086EA91E07B
:100750000E94AF028091B50180620E942F0384E065
:100760008093B6018CE00E942F0381E00E942F034A
:100770008BE39FE10197F1F782E08093B70186E078
:10078000DF91CF910C942F0380620E942F038BE4A2
:1007900096E40197F1F78091B50180620E942F03E2
:1007A00083E592E00197F1F78091B50180620E94A4
:1007B0002F03D0CF9091B901891710F08FEF890FD7
:1007C000E82FF0E0EA55FE4F848980680C942F03EF
:1007D00041E00E94DC0281E090E008951F920F92B8
:1007E0000FB60F9211242F933F938F939F93AF9344
:1007F000BF9380919E0190919F01A091A001B09123
:10080000A10130919D0123E0230F2D3758F501966A
:10081000A11DB11D20939D0180939E0190939F0186
:10082000A093A001B093A1018091A2019091A30196
:10083000A091A401B091A5010196A11DB11D8093C5
:10084000A2019093A301A093A401B093A501BF912D
:10085000AF919F918F913F912F910F900FBE0F906D
:100860001F90189526E8230F0296A11DB11DD2CF27
:100870001F920F920FB60F9211242F933F934F9315
:100880005F936F937F938F939F93AF93BF93EF93F8
:10089000FF93E0910201F09103010995FF91EF911F
:1008A000BF91AF919F918F917F916F915F914F9188
:1008B0003F912F910F900FBE0F901F9018951F9290
:1008C0000F920FB60F9211242F933F934F935F9384
:1008D0006F937F938F939F93AF93BF93EF93FF9308
:1008E000E0910001F09101010995FF91EF91BF9115
:1008F000AF919F918F917F916F915F914F913F91B8
:100900002F910F900FBE0F901F901895CF93DF93EC
:1009100000D000D0CDB7DEB7789484B5826084BDB6
:1009200084B5816084BD85B5826085BD85B58160F3
:1009300085BD80916E00816080936E001092810071
:10094000809181008260809381008091810081602C
:1009500080938100809180008160809380008091ED
:10096000B10084608093B1008091B0008160809379
:10097000B00080917A00846080937A0080917A0040
:10098000826080937A0080917A00816080937A00FF
:1009900080917A00806880937A001092C10064E0B0
:1009A00084E10E94350362E082E00E945F0162E020
:1009B00083E00E945F0160E08EE00E945F0160E0E2
:1009C0008FE00E945F0161E088E00E945F0161E0CA
:1009D00089E00E945F0161E08AE00E945F0161E0BE
:1009E0008DE00E945F0161E080E10E945F0161E0B3
:1009F00081E10E945F0161E082E10E945F0184E089
:100A000092E09093010180930001809169008360DE
:100A100080936900E89A81E492E0909303018093C7
:100A20000201809169008C6080936900E99A81E0FD
:100A30000E94DA0384E191E00E948C026CED75E083
:100A400080E090E00E94D20181E00E942F038BE3BE
:100A50009FE10197F1F790E0292E90E0392E2AE0EE
:100A600030E03B832A83812C912C5401C12CD12C62
:100A700076018EE00E949B01092E000CAA0BBB0B95
:100A8000C80ED91EEA1EFB1E8FE00E949B01092E94
:100A9000000CAA0BBB0B880E991EAA1EBB1E8A81D6
:100AA0009B8101979B838A83892B19F7C701B60124
:100AB0000E943B0B20E030E040E251E40E94C70A74
:100AC0002AE037ED43EA5CE30E942F0C6B017C01C6
:100AD000C0929901D0929A01E0929B01F0929C0100
:100AE000C501B4010E943B0B20E030E040E251E43C
:100AF0000E94C70A26E636E646EE5EE30E942F0C09
:100B00004B015C018092950190929601A092970111
:100B1000B092980180919401882309F441C080919A
:100B2000900190919101A0919201B0919301893C23
:100B30009105A105B105A0F18091900190919101DD
:100B4000A0919201B091930188329342A105B10521
:100B500038F580918A0190918B010091900110915C
:100B60009101209192013091930140918C0150911B
:100B70008D0160918E0170918F01400F511F621F96
:100B8000731F40938C0150938D0160938E0170937D
:100B90008F01019690938B0180938A0110929401AA
:100BA00080918A0190918B019B838A8305970CF435
:100BB00071C060918C0170918D0180918E01909136
:100BC0008F010E94390B2B013C012A813B81B90125
:100BD000330F880B990B0E943B0B9B01AC01C301A7
:100BE000B2010E94C70A20E030E042ED53E40E94C7
:100BF000500A2B013C0120E030E0A9010E94BD0A0F
:100C000087FF03C0412C512C320120E030E044E347
:100C100053E4C301B2010E942F0C20E030E44CE108
:100C200056E40E94C70A2B013C0120E030E040EA74
:100C300052E40E942A0C18160CF470C140928601EE
:100C400050928701609288017092890125E33AEF02
:100C50004EE85CE360918601709187018091880184
:100C6000909189010E942F0C0E94C20A6093040196
:100C700070930501809306019093070110928C01F7
:100C800010928D0110928E0110928F0110928B01A3
:100C900010928A01A5019401C701B6010E942F0C90
:100CA0004B015C0110910401F090050130910601A7
:100CB0003C83809107018A83212F3F2D4C81582F3F
:100CC000C501B4010E942F0C2B013C0123E333E347
:100CD00043E75FE3612F7F2D8C819A810E94BD0ADB
:100CE00087FD29C1C12EDF2CEC809A81998326E6ED
:100CF00036E646E65FE3612F7F2D8C819A810E9464
:100D0000BD0A082F001F0027001F602F89E00E94E6
:100D100013012AE939E949E55FE3612F7F2D8C81D1
:100D20009A810E94BD0A682F661F6627661F8AE0A7
:100D30000E9413012DEC3CEC4CE45FE3612F7F2D0E
:100D40008C819A810E94BD0A682F661F6627661FE4
:100D50008DE00E94130120E030E040E45FE3612F6A
:100D60007F2D8C819A810E94BD0A682F661F66279D
:100D7000661F80E10E9413012CEE31E548E35FE33A
:100D8000612F7F2D8C819A810E94BD0A682F661F7A
:100D90006627661F81E10E94130123E333E343E3E7
:100DA0005FE3612F7F2D8C819A810E94BD0A682F9D
:100DB000661F6627661F82E10E941301602F88E08C
:100DC0000E94130180E00E94DA0386E291E00E9413
:100DD0008C0280E00E94DA038BE391E00E948C0297
:100DE0006091950170919601809197019091980181
:100DF0000AE711E020E044E00E94C407C8010E9415
:100E00008C028EE391E00E948C02609199017091B6
:100E10009A0180919B0190919C0121E044E00E9405
:100E2000C407C8010E948C0281E00E94DA0386E2B6
:100E300091E00E948C0281E00E94DA0384E491E058
:100E40000E948C026091040170910501809106015D
:100E50009091070123E045E00E94C407C8010E9469
:100E60008C0282E491E00E948C0223E045E0B6010E
:100E70008E2D99810E94C407C8010E948C0282E0D5
:100E80000E94DA0386E291E00E948C0282E00E94D6
:100E9000DA0388E491E00E948C0220E046E0C5017C
:100EA000B4010E94C407C8010E948C028CE491E046
:100EB0000E948C0220E046E0C301B2010E94C407F8
:100EC000C8010E948C0283E00E94DA0386E291E06E
:100ED0000E948C0283E00E94DA0326E636E646E6AC
:100EE0005FE360910401709105018091060190918A
:100EF00007010E94BD0A87FF25C081E591E00E949D
:100F00008C026CE271E080E090E00E94D20121143A
:100F1000310409F4A4CD0E940000A1CD80E090E04E
:100F2000A0EAB2E48093860190938701A0938801A0
:100F3000B09389018BCEC12CD12C80E8E82E2FE311
:100F40002983D5CE82E691E0DACFE6EAF1E013829A
:100F500012828CE091E0918380838CE084838FEF18
:100F600085838BE0868387E0878386E0808785E0C2
:100F7000818784E0828713861486158616861786F5
:100F800061E080E10C943503EF920F931F93CF93B0
:100F9000DF93E80134E047FD34E1042E000C550BEB
:100FA00057FF03C0519541955109E32E022F242F7D
:100FB000AE010E94E207CE01DF91CF911F910F9108
:100FC000EF900895A9E0B0E0E8EEF7E00C941F0A76
:100FD0006A01F22EB02E102FFBE3AF2EA01608F4FC
:100FE0001BE31F5F012F27E0AE014F5F5F4F0E94A1
:100FF0004109BC018981982F9970913009F43FC053
:101000009BE2E1FC04C09E2D9170E0FC3AC05E2D95
:101010005071E82FE87083FF46C084E0911101C051
:1010200083E0EF2DE81B8F1508F0E0E0D6018E2F4E
:1010300020E2552351F1992329F0D6019C93C60152
:1010400001966C0196012D5F3F4FE2FE24C08EE4B5
:10105000D6018C9391E411969C93119712968C93E0
:10106000D9018E2F90E281111BC0E20FF32FF11DE9
:1010700010828EEF9FEF2996ECE00C943B0A9DE2E4
:10108000C6CF90E2C4CF2D9381508111FCCFCE0EFC
:10109000D11CE0E0D0CF8EE6D6018C9391E6DBCF79
:1010A0009D938150E0CF482F447082FF3DC084E083
:1010B000911101C083E08F1510F4EF2DE81BD601CC
:1010C0008E2F20E2552309F1992329F0D6019C9314
:1010D000C60101966C0196012D5F3F4FE2FE1BC0D9
:1010E00089E4D6018C938EE411968C93119786E453
:1010F00012968C93D9018E2F90E2882309F4B5CFF4
:101100009D938150FACF2D9381508111FCCFCE0E4B
:10111000D11CE0E0D9CF89E6D6018C938EE61196FA
:101120008C93119786E6E4CF9B0177FF02C030E0F5
:1011300020E0A1E0B0E0911102C0B0E0A0E0F90130
:101140003196AE0FBF1F8B2C912CBB2009F461C0D0
:101150005401EFEFAE1ABE0AAA0DBB1DFA161B060C
:1011600019F014F04F2D4A1B511188C0E3FC59C0EF
:101170007601A42FB0E2A1114FC0C40ED11C992357
:1011800009F45BC040E0D6011196F60190836D0131
:10119000552309F448C0012F060F9A81582F50712A
:1011A00084FF03C0913309F4015010160CF047C0BE
:1011B000093008F008E0EEE2FE2E5B01A01AB1084B
:1011C00085019194819491082F3F320729F4D6012B
:1011D000FC92F60131966F016217730794F10217C2
:1011E00013077CF5DB01A21BB30BAA24A394B12C3B
:1011F000AC0EBD1EAA0DBB1D11968C91215031095C
:10120000D601119628153905F4F0F60180836D0199
:10121000DBCFB12CA12CA0CFF701B1937F01A1505E
:10122000AACF9111B0CFD601942F50E302C05D93A5
:1012300091509111FCCFC40ED11C40E0ACCF01E025
:10124000BACF80E3DBCF6217730731F4963388F4AB
:10125000953311F4552369F0F6018083FD01842F45
:1012600090E2811108C0A40FB11D1C9290E080E0B3
:1012700002CF81E3F1CF91938150F3CF911183CFCE
:101280008ACF283008F027E03327DA01990F311D83
:1012900087FD916000966105710539F432602E5F1B
:1012A0003D9330E32A95E1F708959F3F30F0803871
:1012B0007105610509F03C5F3C5F3D93913008F09A
:1012C0008068911DDF93CF931F930F93FF92EF924E
:1012D000192F987F9695E92F96959695E90FFF27F8
:1012E000E052FF4F99273327EE24FF24A701E7019F
:1012F00005900894079428F4360FE71EF81E491F3E
:10130000511D660F771F881F991F0694A1F705903E
:10131000079428F4E70EF81E491F561FC11D770FCA
:10132000881F991F661F0694A1F70590079428F45B
:10133000F80E491F561FC71FD11D880F991F661F22
:10134000771F0694A1F70590079420F4490F561FC4
:10135000C71FD81F990F661F771F881F0694A9F70C
:1013600084911095177041F0D695C795579547957C
:10137000F794E7941A95C1F7E6E8F0E068941590C1
:10138000159135916591959105907FE27395E118DE
:10139000F10A430B560BC90BD009C0F7E10CF11E43
:1013A000431F561FC91FD01D7EF4703311F48A9558
:1013B000E6CFE894015030F0080F0AF40027021736
:1013C00008F4202F2395022F7A3328F079E37D93B8
:1013D0002A95E9F710C07D932A9589F6069497958A
:1013E0006795379517951794E118F10A430B560B3B
:1013F000C90BD00998F023957E9173957A3308F044
:1014000070E37C932013B8F77E9170617D9330F088
:10141000839571E37D9370E32A95E1F71124EF90B2
:10142000FF900F911F91CF91DF91992787FD9095A4
:1014300008952F923F924F925F926F927F928F9278
:101440009F92AF92BF92CF92DF92EF92FF920F9353
:101450001F93CF93DF93CDB7DEB7CA1BDB0B0FB65D
:10146000F894DEBF0FBECDBF09942A88398848881A
:101470005F846E847D848C849B84AA84B984C884B0
:10148000DF80EE80FD800C811B81AA81B981CE0FA7
:10149000D11D0FB6F894DEBF0FBECDBFED0108958C
:1014A0005058BB27AA270E94680A0C94DC0B0E94A4
:1014B000A30B38F00E94AA0B20F039F49F3F19F4D7
:1014C00026F40C94A00B0EF4E095E7FB0C949A0B19
:1014D000E92F0E94010C58F3BA17620773078407BB
:1014E000950720F079F4A6F50C94230C0EF4E09502
:1014F0000B2EBA2FA02D0B01B90190010C01CA01CE
:10150000A0011124FF27591B99F0593F50F4503E78
:1015100068F11A16F040A22F232F342F4427585F6A
:10152000F3CF469537952795A795F0405395C9F782
:101530007EF41F16BA0B620B730B840BBAF091503A
:10154000A1F0FF0FBB1F661F771F881FC2F70EC0D9
:10155000BA0F621F731F841F48F4879577956795AC
:10156000B795F7959E3F08F0B0CF9395880F08F098
:101570009927EE0F9795879508950E94760B08F4AA
:1015800081E008950E94B30BE3950C94ED0B0E944B
:10159000DB0A0C94DC0B0E94AA0B58F00E94A30BF0
:1015A00040F029F45F3F29F00C949A0B51110C94F0
:1015B000240C0C94A00B0E94010C68F39923B1F346
:1015C000552391F3951B550BBB27AA276217730769
:1015D000840738F09F5F5F4F220F331F441FAA1FFD
:1015E000A9F335D00E2E3AF0E0E832D091505040B9
:1015F000E695001CCAF72BD0FE2F29D0660F771F67
:10160000881FBB1F261737074807AB07B0E809F04C
:10161000BB0B802DBF01FF2793585F4F3AF09E3FD1
:10162000510578F00C949A0B0C94240C5F3FE4F372
:10163000983ED4F3869577956795B795F7959F5F14
:10164000C9F7880F911D9695879597F90895E1E060
:10165000660F771F881FBB1F621773078407BA07BF
:1016600020F0621B730B840BBA0BEE1F88F7E0951A
:101670000895E89409C097FB3EF490958095709585
:1016800061957F4F8F4F9F4F9923A9F0F92F96E9CE
:10169000BB279395F695879577956795B795F11143
:1016A000F8CFFAF4BB0F11F460FF1BC06F5F7F4FE0
:1016B0008F4F9F4F16C0882311F096E911C07723F2
:1016C00021F09EE8872F762F05C0662371F096E8FB
:1016D000862F70E060E02AF09A95660F771F881FCA
:1016E000DAF7880F9695879597F90895990F00086E
:1016F000550FAA0BE0E8FEEF16161706E807F907E4
:10170000C0F012161306E407F50798F0621B730B7E
:10171000840B950B39F40A2661F0232B242B252BFF
:1017200021F408950A2609F4A140A6958FEF811DA2
:10173000811D089597F99F6780E870E060E0089543
:101740009FEF80EC089500240A94161617061806D9
:101750000906089500240A941216130614060506B5
:1017600008950C94A00B0E94090CD8F3E894E0E0D3
:10177000BB279F57F0F02AED3FE049EC06C0EE0F83
:10178000BB0F661F771F881F28F0B23A62077307E6
:10179000840728F0B25A620B730B840BE3959A9579
:1017A00072F7803830F49A95BB0F661F771F881F39
:1017B000D2F790480C949E0C092E0394000C11F45F
:1017C000882352F0BB0F40F4BF2B11F460FF04C01C
:1017D0006F5F7F4F8F4F9F4F0895EF93E0FF07C0DC
:1017E000A2EA2AED3FE049EC5FEB0E94680A0E9402
:1017F000DC0B0F90039401FC9058E8E6F0E00C94A9
:10180000AA0C57FD9058440F551F59F05F3F71F0D7
:101810004795880F97FB991F61F09F3F79F0879557
:101820000895121613061406551FF2CF4695F1DFE0
:1018300008C0161617061806991FF1CF8695710570
:10184000610508940895E894BB2766277727CB01A4
:1018500097F908950E94760B08F48FEF08950E947F
:10186000420C0C94DC0B0E94A30B38F00E94AA0BD4
:1018700020F0952311F00C949A0B0C94A00B1124DA
:101880000C94240C0E94010C70F3959FC1F3950FEA
:1018900050E0551F629FF001729FBB27F00DB11DF4
:1018A000639FAA27F00DB11DAA1F649F6627B00D84
:1018B000A11D661F829F2227B00DA11D621F739F6D
:1018C000B00DA11D621F839FA00D611D221F749F7B
:1018D0003327A00D611D231F849F600D211D822FC2
:1018E000762F6A2F11249F5750409AF0F1F08823E9
:1018F0004AF0EE0FFF1FBB1F661F771F881F915016
:101900005040A9F79E3F510580F00C949A0B0C941F
:10191000240C5F3FE4F3983ED4F386957795679562
:10192000B795F795E7959F5FC1F7FE2B880F911D3F
:101930009695879597F908959F3F31F0915020F43F
:10194000879577956795B795880F911D969587959B
:1019500097F908959F938F937F936F93FF93EF93DE
:101960009B01AC010E942F0CEF91FF910E94BE0CD5
:101970002F913F914F915F910C942F0CDF93CF9358
:101980001F930F93FF92EF92DF927B018C0168947B
:1019900006C0DA2EEF010E94420CFE01E894A591E8
:1019A0002591359145915591A6F3EF010E94680A62
:1019B000FE019701A801DA9469F7DF90EF90FF909C
:1019C0000F911F91CF91DF910895EE0FFF1F0590AA
:0A19D000F491E02D0994F894FFCF84
:1019DA000F020F023333733F00000000E8031002C6
:1019EA003E023D0220202041504643205359535481
:1019FA00454D2020200020202020202020202020AB
:101A0A002020202020202020202000563A00204993
:101A1A003A00205550463A0056413A002041503A81
:101A2A0000436170616369746F72732061646465F5
:101A3A006400506F77657220466163746F72204F3D
:021A4A004B004F
:00000001FF
